:100000000C9498350C94C9350C94C9350C94C935A9
:100010000C94C9350D94A72F0C94C9350C94A8D114
:100020000D94352F0C94C9350C94C9350C94C935F1
:100030000C94716C0C94C9350C94E3CB0C947EB287
:100040000C94C9350C9431D20C94C9350C94C93533
:100050000C94C9350C94C9350C94C9350D94B31C56
:100060000C94C9350C94B7720C94C9350C94C935ED
:100070000C94C9350C94C9350C94C9350C94C93508
:100080000C94C9350C94C9350C94C9350C94C935F8
:100090000C9473720C94C9350C94C9350C94C93501
:1000A0000C94C9350C94C9350C94F0780C94C9356E
:1000B0000C94C9350C94D2780C94C9350C94C9357C
:1000C0000C94C9350C94C9350C94C9350C944978F5
:1000D0000C94C9350C94C9350C94C9350C94C935A8
:1000E0000C94C935084AD73B3BCE016E84BCBFFD9A
:1000F000C12F3D6C74319ABD56833DDA3D00C77FF8
:1001000011BED9E4BB4C3E916BAAAABE0000008090
:100110003F05A84CCDB2D44EB93836A9020C50B91F
:10012000918688083CA6AAAA2ABE000000803F0744
:10013000634236B79BD8A71A39685618AEBAAB5582
:100140008C1D3CB7CC5763BD6DEDFD753EF6177247
:1001500031BF000000803F08000000BE9224491219
:100160003EABAAAA2ABECDCCCC4C3E00000080BE3D
:10017000ABAAAAAA3E00000000BF000000803F001A
:1001800000000000084178D3BB4387D1133D190E0E
:100190003CC3BD4282AD2B3E68EC8276BED98FE176
:1001A000A93E4C80EFFFBE01C4FF7F3F000000006E
:1001B00000000C9426EC0C948AF10C941D480C94CD
:1001C000CABC0D948C1F0C9464490C94FB350C94A0
:1001D0006EEC0C94E6BA0C94F6DF0C94A15C0C94D3
:1001E000C8C40C94584C0C94D4680C9412370C94DA
:1001F000F7B30C942F3D0D941F8B0C9416B50C94F3
:100200006B3E0D94A1B60C9464690D94674A0C94EE
:10021000C4690C94FD4B0C94214C0D9483B60C9442
:100220004BEB0C9436F10C94F6390C945D3E0D9426
:10023000CD470D94138B0C942A360C941FF20D9419
:1002400025500D94C78A0C9426370C9416360C94BE
:100250006E690C947F500C94FD390C94174C0C94DF
:10026000D8540C9467EB0C94F7350C941D470D94FF
:10027000B58A0C9494370C942B4C0C94693C0C94D8
:10028000FAEB0D9489470C9410380C940AB50C9431
:10029000AEB80C9426BD0D944E4F0C94DC4B0C94D0
:1002A000B4680C94E9470C941DBB0C94ECF10C94CD
:1002B00095EB0C94BCEB0C94D3620C94B4360C9478
:1002C000325D0C9465550D94051D0D94EB460C9410
:1002D00012360C94F8360C94043A0C94433D0C946A
:1002E00089370C94F34B0C94E44B0C943E3D0C94E6
:1002F00025B80C943BF10C9478460D9402060C94AE
:1003000097BF0C9416E00C94E1560C940B690C9476
:10031000BD620C9474370C9456690C94C0B70C945D
:10032000E94B0C94A8410C9436E00C94E2DF0C9459
:10033000293C0D9400470C94FE350C94BF360C9468
:10034000DD5C0D94348B0C94B2DF0C944E4C0C9409
:10035000354C0C94496A0C9468370D9440160C94F3
:100360002EE00C9428390C942B550C94AE480C9428
:1003700037510C94E9350C9429360C940F730C9476
:100380009F690C944D3D0C9480380C941EE00D94A4
:10039000F8480C9441550D940D8B0C943C360C94FC
:1003A00024360C9449BA0C94523D0C9486460C9415
:1003B000B7DF0C94D4E90C94ECDF0C940EE00C94B1
:1003C000C8680D946B180C94E7B70D9491470C9482
:1003D0004DBF0C94133E0C9426E00D94048B0C94AA
:1003E0007D3A0C94EF350D941B1D0D94D8070C9499
:1003F000316A0C94FEDF0C941BEC0C94123A0C94B2
:100400001DB40C94444C0D94984F0C94F8BC0D946E
:10041000A2490C9406E00C9420BC0C94074C0C945C
:1004200055390C9446E00C94BC460C943EF20D9465
:10043000CE070C9469B70C940F4C0C9404C50C9423
:10044000E7DF0C94624C0D94CC460C942E360C9441
:100450007C3D0C94D7360C9498630C94B0690C9442
:1004600013B40C9451480C941C360D94591D0C94E3
:10047000B63E0C94DD520C946DDF0C9404360C9453
:100480000B3A0C943EE00C943C680D94F71C0C94D1
:1004900077680C94DDDF0C9466410C943E690C94F3
:1004A0002EB40C942DB90C94C5BC0C944E370C94FE
:1004B000D8490D9432470C94373B0D94471D0C944A
:1004C0003A370D94168B0D94288B0C9477550C9419
:1004D000CC400C9408370D94C4070C946C4C0C94CD
:1004E000563D0C94BF590C94CCEB0C94265F0D94A4
:1004F000D21C0D942B8B0C94F3350C9498680C94AF
:10050000FE370D942F4A0D9404050C9409490C9460
:1005100010EC0C9420360C94393D0C9408360C9455
:10052000AFDF0C9405EC0C94483D0D94108B0D94AA
:10053000241D0C94E1490C946A5B0C94D0370C9404
:10054000764C0C94FEB40C9441360D94AC8A0C9409
:10055000A7C40C9424C40D94E71D0C94E1470D949A
:10056000F61B0C948B690C9432360D94EC1C0C9495
:100570004EE00D94CF1B0C943DB40C940E360C94AD
:100580000EBC0C94CF490C9496B60C946A690D94E9
:10059000124A0C9456EC0C9491BA0C94343D6E6152
:1005A0006E00696E66004E414E494E495459494E9F
:1005B00046CDCCCC3D0AD7233C17B7D13877CC2BCE
:1005C000329595E6241FB14F0A000020410000C873
:1005D0004200401C4620BCBE4CCA1B0E5AAEC59DF4
:1005E0007400407A10F35A00A0724E18090010A54A
:1005F000D4E80000E87648170000E40B540200003D
:10060000CA9A3B000000E1F50500008096980000C2
:100610000040420F000000A08601000000102700EB
:10062000000000E803000000006400000000000A71
:1006300000000000000100000000002C76D888DCDB
:10064000674F0823DFC1DFAE59E1B1B796E5E3E4B8
:1006500053C63AE651997696E8E6C28426EB898C31
:100660009B62ED407C6FFCEFBC9C9F40F2BAA56F93
:10067000A5F490055A2AF75C936B6CF9676DC11B62
:10068000FCE0E40D47FEF520E6B500D0ED902E032A
:1006900000943577050080841E080000204E0A0073
:1006A0000000C80C333333330F986E12831141EFBF
:1006B0008D2114893BE65516CFFEE6DB18D1844B1D
:1006C000381BF77C1D901DA4BBE424203284725E8D
:1006D000228100C9F124ECA1E53D276364696E6FB6
:1006E00070737578585B0054656D706572617475D0
:1006F00072652063616C6962726174696F6E2066F5
:1007000061696C65640054656D70657261747572C1
:10071000652063616C6962726174696F6E206973D0
:100720002066696E697368656420616E6420616328
:10073000746976652E2054656D702E2063616C6936
:1007400062726174696F6E2063616E2062652064FD
:10075000697361626C656420696E206D656E7520D9
:1007600053657474696E67732D3E54656D702E20E9
:1007700063616C2E0046696C2E2073656E736F7218
:100780000052504D2054657374696E67004D6F764A
:1007900065205A004D6F76652059004D6F766520B3
:1007A0005800437261736820646574656374696F8F
:1007B0006E2063616E0A6265207475726E656420D6
:1007C0006F6E206F6E6C7920696E0A4E6F726D616C
:1007D0006C206D6F6465005741524E494E473A0A8E
:1007E000437261736820646574656374696F6E0A2F
:1007F00064697361626C656420696E0A5374656133
:100800006C7468206D6F6465004175746F6C6F6106
:1008100064696E672066696C616D656E74206176CF
:1008200061696C61626C65206F6E6C7920776865B8
:100830006E2066696C616D656E742073656E736F92
:1008400072206973207475726E6564206F6E2E2E2F
:100850002E004552524F523A2046696C616D656ECA
:10086000742073656E736F72206973206E6F7420CD
:10087000726573706F6E64696E672C20706C656151
:10088000736520636865636B20636F6E6E65637468
:10089000696F6E2E004D6F6465206368616E6765D9
:1008A00020696E2070726F67726573732E2E2E0032
:1008B00043616C6962726174650053686565742098
:1008C000252E37730A5A206F66667365743A2025A1
:1008D0002B312E3366206D6D0A2563436F6E74696C
:1008E0006E75650A256353746172742066726F6D4C
:1008F000207A65726F00506C65617365206C6F6162
:10090000642066696C616D656E74206669727374CB
:100910002E003E43616E63656C0046696C616D65D7
:100920006E740053656C6563742066696C616D65F7
:100930006E743A0052756E6E696E672057697A61FF
:1009400072642077696C6C2064656C6574652063E3
:10095000757272656E742063616C6962726174692C
:100960006F6E20726573756C747320616E64207392
:10097000746172742066726F6D20746865206265A0
:1009800067696E6E696E672E20436F6E74696E754F
:10099000653F0050726568656174696E67206E6FAF
:1009A0007A7A6C652E20506C656173652077616979
:1009B000742E004C6F6164696E672066696C616DAE
:1009C000656E7400506C6561736520696E73657245
:1009D000742066696C616D656E7420696E746F2039
:1009E0007468652065787472756465722C2074680B
:1009F000656E20707265737320746865206B6E6F0E
:100A00006220746F206C6F61642069742E00506CDA
:100A10006561736520696E736572742066696C61C7
:100A20006D656E7420696E746F20746865206669E8
:100A30007273742074756265206F66207468652017
:100A40004D4D552C207468656E207072657373204F
:100A5000746865206B6E6F6220746F206C6F6164C8
:100A60002069742E00546865207072696E74657216
:100A70002077696C6C207374617274207072696E77
:100A800074696E672061207A69672D7A6167206CCE
:100A9000696E652E20526F746174652074686520DC
:100AA0006B6E6F6220756E74696C20796F75207241
:100AB0006561636820746865206F7074696D616C2E
:100AC000206865696768742E20436865636B2074CD
:100AD000686520706963747572657320696E20742F
:100AE00068652068616E64626F6F6B202843616C7B
:100AF0006962726174696F6E206368617074657297
:100B0000292E0053656C6563742074656D70657281
:100B10006174757265207768696368206D617463BC
:100B200068657320796F7572206D61746572696193
:100B30006C2E0043686F6F736520612066696C617D
:100B40006D656E7420666F722074686520466972E8
:100B50007374204C617965722043616C69627261C3
:100B600074696F6E20616E642073656C65637420B8
:100B7000697420696E20746865206F6E2D736372CE
:100B800065656E206D656E752E004E6F772049206D
:100B900077696C6C2063616C696272617465206452
:100BA000697374616E6365206265747765656E2034
:100BB000746970206F6620746865206E6F7A7A6C35
:100BC0006520616E64206865617462656420737578
:100BD00072666163652E00596F752063616E2061D6
:100BE0006C7761797320726573756D6520746865C3
:100BF0002057697A6172642066726F6D2043616C60
:100C00006962726174696F6E202D3E2057697A6146
:100C100072642E00506C6561736520636865636B58
:100C2000206F75722068616E64626F6F6B20616EF9
:100C30006420666978207468652070726F626C65E4
:100C40006D2E205468656E20726573756D65207415
:100C500068652057697A61726420627920726562E2
:100C60006F6F74696E6720746865207072696E7446
:100C700065722E00416C6C20697320646F6E652E66
:100C8000204861707079207072696E74696E672196
:100C900000496620796F752068617665206164641B
:100CA0006974696F6E616C20737465656C2073681C
:100CB000656574732C2063616C6962726174652070
:100CC0007468656972207072657365747320696EEB
:100CD0002053657474696E6773202D204857205324
:100CE00065747570202D20537465656C207368657C
:100CF0006574732E00506C6561736520636C65616B
:100D00006E206865617462656420616E6420746839
:100D1000656E20707265737320746865206B6E6FEA
:100D2000622E00446F20796F752077616E74207495
:100D30006F20726570656174206C617374207374C8
:100D4000657020746F20726561646A7573742064C5
:100D5000697374616E6365206265747765656E2082
:100D60006E6F7A7A6C6520616E642068656174626A
:100D700065643F0053656C656374206E6F7A7A6CAE
:100D80006520707265686561742074656D70657248
:100D90006174757265207768696368206D6174633A
:100DA00068657320796F7572206D61746572696111
:100DB0006C2E0049732066696C616D656E74206CE1
:100DC0006F616465643F004E6F7720492077696CDE
:100DD0006C2070726568656174206E6F7A7A6C65DC
:100DE00020666F7220504C412E00492077696C6C50
:100DF0002072756E207A2063616C69627261746919
:100E00006F6E206E6F772E004E6F772072656D6F5C
:100E10007665207468652074657374207072696EDD
:100E2000742066726F6D20737465656C20736865DD
:100E300065742E00506C656173652072656D6F7608
:100E400065207368697070696E672068656C70658D
:100E500072732066697273742E00492077696C6C16
:100E60002072756E2078797A2063616C6962726194
:100E700074696F6E206E6F772E2049742077696CCD
:100E80006C2074616B6520617070726F782E2031F8
:100E900032206D696E732E0046697273742C20497E
:100EA0002077696C6C2072756E207468652073659C
:100EB0006C667465737420746F20636865636B205F
:100EC0006D6F737420636F6D6D6F6E2061737365EA
:100ED0006D626C792070726F626C656D732E004864
:100EE000692C204920616D20796F7572204F7269DD
:100EF00067696E616C205072757361206933207070
:100F000072696E7465722E20576F756C6420796FEC
:100F100075206C696B65206D6520746F206775693D
:100F2000646520796F75207468726F7567682074C6
:100F300068652073657475702070726F6365737374
:100F40003F0048692C204920616D20796F7572201F
:100F50004F726967696E616C2050727573612069A8
:100F600033207072696E7465722E20492077696C27
:100F70006C20677569646520796F75207468726F7D
:100F800075676820612073686F727420736574756B
:100F9000702070726F636573732C20696E207768A0
:100FA00069636820746865205A2D617869732077B9
:100FB000696C6C2062652063616C69627261746542
:100FC000642E205468656E2C20796F752077696CCB
:100FD0006C20626520726561647920746F20707284
:100FE000696E742E00452D636F72726563743A00EA
:100FF0005A2D636F72726563743A00592D636F7274
:10100000726563743A00582D636F72726563743A47
:1010100000437574746572004D6F64656C005374A1
:1010200072696374005761726E00436865636B7325
:10103000004E6F7A7A6C6520642E004E6F6E6500EC
:10104000416C7068616265740054696D6500536F2E
:1010500072740053442063617264005250692070BE
:101060006F72740054656D702E2063616C2E004C9D
:10107000696E2E20636F7272656374696F6E0048CB
:101080005720536574757000462E206175746F6C1F
:101090006F61640044697361626C6520737465708C
:1010A00070657273004D6F766520617869730054C6
:1010B000656D70657261747572650054656D702E32
:1010C0002063616C6962726174696F6E005265734E
:1010D00065742058595A2063616C6962722E005001
:1010E00049442063616C6962726174696F6E004289
:1010F0006564206C6576656C20636F7272656374DD
:10110000004D65736820426564204C6576656C69A6
:101110006E670043616C696272617465205A0043B6
:10112000616C6962726174652058595A0053656C2C
:1011300066746573740042656C7420746573740022
:1011400057697A617264004C6F616420616C6C0055
:10115000506C656173652070756C6C206F757420C0
:1011600066696C616D656E7420696D6D6564696139
:1011700074656C7900556E6C6F6164696E6720668A
:10118000696C616D656E74005265736574005265BB
:101190006E616D65004669727374206C6179657269
:1011A0002063616C2E0053656C6563740053746535
:1011B000656C2073686565747300537570706F7229
:1011C00074004661696C207374617473204D4D55D1
:1011D000004661696C2073746174730053746174A8
:1011E0006973746963730043616C696272617469E5
:1011F0006F6E004175746F4C6F61642066696C613D
:101200006D656E74004375742066696C616D656E02
:101210007400456A6563742066696C616D656E74FF
:1012200000556E6C6F61642066696C616D656E74EB
:10123000004C6F616420746F206E6F7A7A6C650069
:101240004C6F61642066696C616D656E74004E6FF1
:101250002053442063617264005072696E7420668A
:10126000726F6D20534400526573756D6520707206
:10127000696E74005061757365207072696E7400D8
:1012800054756E650050726568656174004C6976CE
:10129000652061646A757374205A005075726765C1
:1012A00020526F7574696E650046696C6C20526FD0
:1012B0007574696E6500496E666F2073637265654B
:1012C0006E0046696E697368696E67206D6F76653A
:1012D0006D656E7473004272696768746E657373CE
:1012E000004173736973740053696C656E74004FC9
:1012F0006E6365004C6F756400536F756E64004DCE
:101300004D55204D6F6465004372617368206465BC
:10131000742E00537465616C7468004E6F726D6159
:101320006C0046616E7320636865636B0050617585
:10133000736500436F6E742E0046532041637469D9
:101340006F6E0046696C2E2073656E736F7200437A
:1013500068616E67652066696C616D656E740046D4
:101360006C6F77005370656564004E2F41004D61CE
:10137000676E65747320636F6D702E005A2D7072E6
:101380006F6265206E722E004D6573680054696D42
:10139000656F75740044696D004272696768740016
:1013A0004175746F004D6F6465004C6576656C2007
:1013B00044696D6D6564004C6576656C20427269A8
:1013C0006768740046616E207370656564004265ED
:1013D00064004E6F7A7A6C650053657474696E6749
:1013E00073005072696E742061626F72746564007C
:1013F00053746F70207072696E7400436865636B1C
:10140000696E672066696C650046696C6520696E67
:10141000636F6D706C6574652E20436F6E74696EBA
:10142000756520616E797761793F00045265667257
:10143000657368004D61696E00496E736572742052
:101440007468652066696C616D656E742028646FD0
:10145000206E6F74206C6F61642069742920696E3E
:10146000746F207468652065787472756465722085
:10147000616E64207468656E207072657373207489
:101480006865206B6E6F622E0056657269666963CF
:101490006174696F6E206661696C65642C20726589
:1014A0006D6F7665207468652066696C616D656E28
:1014B0007420616E642074727920616761696E2E98
:1014C0000053656E736F7220766572696669656434
:1014D0002C2072656D6F7665207468652066696C76
:1014E000616D656E74206E6F772E00506C65617350
:1014F0006520636865636B207468652049522073BA
:10150000656E736F7220636F6E6E656374696F6E64
:101510002C20756E6C6F61642066696C616D656E00
:10152000742069662070726573656E742E00506C4D
:101530006561736520756E6C6F61642074686520E9
:1015400066696C616D656E742066697273742C20B7
:101550007468656E20726570656174207468697363
:1015600020616374696F6E2E0057616974696E67DC
:1015700020666F72206E6F7A7A6C6520616E6420CF
:1015800062656420636F6F6C696E670053656C669B
:101590002074657374204F4B0053656C662074652E
:1015A0007374207374617274005072696E74206673
:1015B000616E3A0045787472756465722066616E7A
:1015C0003A0043616C6962726174696E6720686F8A
:1015D0006D6500416C6C20636F72726563740043CB
:1015E0006865636B696E672073656E736F727300F5
:1015F000436865636B696E6720686F74656E64002D
:10160000436865636B696E67206265640043686563
:10161000636B696E67205A2061786973004368655F
:10162000636B696E67205920617869730043686550
:10163000636B696E67205820617869730043686541
:10164000636B696E6720656E6473746F70730043BB
:101650006172642072656D6F766564004F6E004F35
:101660006666004261636B005072696E7465722039
:101670006E6F7A7A6C65206469616D65746572203D
:10168000646966666572732066726F6D2074686542
:1016900020472D636F64652E20506C656173652053
:1016A000636865636B207468652076616C7565207E
:1016B000696E2073657474696E67732E2050726949
:1016C0006E742063616E63656C6C65642E0050728D
:1016D000696E746572206E6F7A7A6C6520646961D8
:1016E0006D657465722064696666657273206672E2
:1016F0006F6D2074686520472D636F64652E2043ED
:101700006F6E74696E75653F004D4B33532066698B
:10171000726D7761726520646574656374656420B9
:101720006F6E204D4B33207072696E746572004687
:1017300049524D57415245204352415348210A4492
:1017400065627567206461746120617661696C61AE
:10175000626C6520666F7220616E616C797369736B
:101760002E20436F6E7461637420737570706F7296
:101770007420746F207375626D6974206465746180
:10178000696C732E00426C61636B6F7574206F63BC
:101790006375727265642E205265636F7665722080
:1017A0007072696E743F0053656C66746573742063
:1017B00077696C6C2062652072756E20746F20638F
:1017C000616C6962726174652061636375726174D2
:1017D000652073656E736F726C65737320726568D4
:1017E0006F6D696E672E005468657265206973209D
:1017F0007374696C6C2061206E65656420746F2061
:101800006D616B65205A2063616C696272617469F5
:101810006F6E2E20506C6561736520666F6C6C6F07
:101820007720746865206D616E75616C2C2063682B
:101830006170746572204669727374207374657088
:10184000732C2073656374696F6E2043616C6962E9
:10185000726174696F6E20666C6F772E00507269CA
:101860006E74657220686173206E6F7420626565A6
:101870006E2063616C69627261746564207965745D
:101880002E20506C6561736520666F6C6C6F7720DD
:10189000746865206D616E75616C2C206368617081
:1018A0007465722046697273742073746570732C4A
:1018B0002073656374696F6E2043616C6962726145
:1018C00074696F6E20666C6F772E004F6C642073A6
:1018D000657474696E677320666F756E642E20443C
:1018E000656661756C74205049442C20457374659D
:1018F0007073206574632E2077696C6C206265209C
:101900007365742E005761726E696E673A20626F5C
:101910007468207072696E746572207479706520C5
:10192000616E64206D6F74686572626F61726420AD
:1019300074797065206368616E6765642E00576115
:10194000726E696E673A207072696E746572207487
:10195000797065206368616E6765642E00576172F7
:101960006E696E673A206D6F74686572626F61723E
:10197000642074797065206368616E6765642E0009
:1019800054656D70657261747572652063616C6910
:1019900062726174696F6E206661696C65642E2085
:1019A000436F6E74696E7565207769746820707214
:1019B000657373696E6720746865206B6E6F622E45
:1019C0000054656D70657261747572652063616C39
:1019D0006962726174696F6E20646F6E652E204358
:1019E0006F6E74696E7565207769746820707265B2
:1019F0007373696E6720746865206B6E6F622E006A
:101A00007B5B4552523A00332E31302E30005D5B05
:101A10004657523A005D5B54494D3A005D5B464E75
:101A20004D3A005D5B46454D3A005D5B5043443A9C
:101A3000005B5446553A007B5B50524E3A39395D53
:101A4000007B5B50524E3A355D007B5B50524E3A04
:101A5000305D007B5B50524E3A395D007B5B5052EB
:101A60004E3A385D007B5B5245533A305D5B4649E8
:101A70004C3A007B5B5245533A315D5B46494C3AE8
:101A8000005B50524E3A005B50464E3A305D005B70
:101A90004449413A005D5B4154423A005D5B415428
:101AA000303A005D5B5354423A005B5354303A0085
:101AB000473830004D3435004D3435205A00473713
:101AC000360057697A6172642073746174653A20D4
:101AD00025640A004578706572696D656E74616C85
:101AE000004673656E736F72204465746563746934
:101AF0006F6E0044697361626C65206661726D206F
:101B00006D6F6465004D3834004D34340047323811
:101B1000205700200A200A20004739390044697301
:101B200061626C65206661726D206D6F64653F0057
:101B30004D373737004D373738004D363030004D90
:101B4000203834004D3834004D3234004D323320CB
:101B5000257300052E2E00257500593A2025752085
:101B60002D3E202E2E2E00257500583A202575205A
:101B70002D3E202E2E2E004D6561737572656420FA
:101B800066696C616D656E742073656E736F72202B
:101B90006C6F77206C6576656C3A2025342E326642
:101BA000560A004D656173757265642066696C61E3
:101BB0006D656E742073656E736F722068696768F7
:101BC000206C6576656C3A2025342E3266560A0004
:101BD000457874722066616E2073706565643A2082
:101BE00025640A005072696E742066616E207370FD
:101BF0006565643A2025640A005465737420323A9E
:101C000000457874722066616E2073706565643A71
:101C10002025640A005072696E742066616E20731C
:101C2000706565643A2025640A0054657374203138
:101C30003A004D383400256320415849532053471A
:101C4000313D25640A00486F74656E640042656426
:101C5000005A00590058002D2D2D2D2D2D2D2D2DE4
:101C60002D2D2D2D2D2D2D2D2D2D2D004F4B0000EB
:101C700000000000110A046265746100616C706804
:101C800061006465760003000A0000008111505273
:101C900055534133444657000000210024002700DB
:101CA0002A002D003000330001010000040107016B
:101CB0000A0100002200250028002B002E00310020
:101CC000340002010000050108010B0100002000A2
:101CD0002300260029002C002F0032000001000004
:101CE000030106010901050505050705080808089F
:101CF000020202020A0A08080404040401010101A4
:101D0000010101010303030303030303040707079E
:101D10000C0C0C0C0C0C0C0C020202020606060643
:101D2000060606060B0B0B0B0B0B0B0B07070A0A21
:101D30000A0A0A0A0505050404040808010210201D
:101D400020080810204010204080020102010804F1
:101D50000201010204081020408080402010080485
:101D600002018004020180402010080402010804DE
:101D70000201010204081020408001020408102022
:101D8000408010080408801020400440801020404B
:101D9000048000000A0B02090C0D0E080703040161
:101DA0000000000000000000000000000000000033
:101DB0000000000000000000000000000000121100
:101DC0001000000000000000000000000000000003
:101DD0000000000000000000000000000000000003
:101DE0000000000000000000435A5058003B530020
:101DF0006164635F696E6974000A204F7269676984
:101E00006E616C2050727573612069330A20202046
:101E1000507275736120526573656172636800204A
:101E20000A200A200A2000416C6C20446174610081
:101E300053657276696365207072657000536869D6
:101E40007070696E67207072657000537461746998
:101E50007374696373004C616E67756167650045F3
:101E6000524153494E4720616C6C2064617461009B
:101E7000466163746F72792052455345540044495A
:101E80005341424C454400454E41424C454400209C
:101E90002873656E736F7220626F61726420726561
:101EA000766973696F6E3A2553290A004653656E49
:101EB000736F7220255300494E5434004D4B3353F9
:101EC0004D4D553253004E4F4D4B3353002E014E66
:101ED0004F4354554100414C5446414E00466562C3
:101EE000202037203230323200436F6D70696C65CC
:101EF000643A2000286E6F6E652C206465666175FB
:101F00006C7420636F6E66696729004665622020E5
:101F10003720323032322030393A35323A333600D7
:101F200020332E31302E302D34343831007374612B
:101F3000727400534E207570646174652066616927
:101F40006C656400534E2075706461746564004371
:101F50005A505800416E206572726F72207768691E
:101F60006C652077726974696E6720746F2074687D
:101F70006520534420436172642E002055706C6FBD
:101F8000616420696E2070726F67726573730020E0
:101F90005A3A0020593A0020583A004352415348D7
:101FA0005F444554454354454458590043524153B6
:101FB000485F4445544543544544590043524153B6
:101FC000485F444554454354454458004D32390018
:101FD000202030002020310046494E444100504925
:101FE0004E44410057697A61726420656E642073C3
:101FF000746174653A2025640A0053706F6F6C4AEF
:102000006F696E004669726D7761726500466C613A
:102010007368416972004572723A205052494E54B9
:102020002046414E204552524F52004572723A208E
:10203000455854522E2046414E204552524F520090
:102040002F2F20616374696F6E3A706175736564D8
:10205000002F2F20616374696F6E3A726573756D1E
:102060006564002F2F20616374696F6E3A72657327
:10207000756D65002F2F20616374696F6E3A63611F
:102080006E63656C0041786973206C656E67746877
:1020900020646966666572656E63653A252E3366EF
:1020A0000A004D65617375726564206178697320FB
:1020B0006C656E6774683A252E33660A004C43449B
:1020C00020737461747573206368616E6765640062
:1020D000534420636172642072656C65617365644A
:1020E00000452D636F6F6C206D6F646500414C542B
:1020F00046414E206465742E0045787465726E61A9
:102100006C2053504920666C6173680A58464C41F4
:102110005348206973206E6F74207265732D0A70A6
:102120006F6E64696E672E204C616E6775616765BE
:102130000A73776974636820756E617661696C6192
:10214000626C652E002F2F20616374696F6E3A6494
:10215000756D705F617661696C61626C650050726B
:10216000757361206933204D4B3353204F4B2E0044
:10217000437261736844657465637420454E4142DF
:102180004C4544210043726173684465746563740F
:102190002044495341424C4544004578747275646B
:1021A00065722066616E20747970653A2000584629
:1021B0004C415348206E6F7420726573706F6E646B
:1021C000696E672E002020506C616E6E65724275DC
:1021D0006666657242797465733A200020467265BE
:1021E00065204D656D6F72793A2000207C20417525
:1021F00074686F723A2000204C61737420557064CB
:10220000617465643A200020536F6674776172656B
:1022100020526573657400205761746368646F674A
:10222000205265736574002042726F776E206F755F
:1022300074205265736574002045787465726E6110
:102240006C20526573657400506F7765725570002D
:102250006572726F722077726974696E6720746F2D
:102260002066696C6500656E6473746F70732068B6
:1022700069743A2000446F6E6520736176696E67F9
:102280002066696C652E006F6B00555341525432C5
:102290002072782046756C6C21212100536574747E
:1022A000696E67732053746F7265640053746F7244
:1022B00065642073657474696E67732072657472E7
:1022C00069657665640048617264636F6465642063
:1022D00044656661756C742053657474696E6773C8
:1022E000204C6F6164656400563200000000C842F3
:1022F0000000C8420000C84300008C43000048436F
:1023000000004843000040410000F042E8030000A4
:10231000E8030000C80000008813000000409C444F
:1023200000409C440000000000000000204E00001F
:102330000000204100002041CDCCCC3E0000904068
:10234000000000000000000000000000CDCCCC3EEA
:102350003D0A8141FF08433EB099AB438F42FC42A6
:10236000E65A343F4C62B045000000000040400097
:1023700000344200000000000000000000004100A6
:102380000000E03F0000C8420000C8420000404199
:102390000000F042C0030000C0030000C8000000BD
:1023A000881300001010102000409C4445455052F6
:1023B0004F4D204572726F7200627573793A2070CA
:1023C000617573656420666F7220696E7075740044
:1023D000627573793A2070617573656420666F72F7
:1023E000207573657200627573793A2070726F633D
:1023F000657373696E670000007F4300805443007B
:1024000000484300000000000080C09A99193E0077
:10241000000000000080C09A99193E0000A0400012
:1024200000A0400000004025336420737465703DB7
:10243000253264206D73636E743D2534640A000098
:10244000007F43008058439AD94743FFFFFF204154
:102450003A0020503A002042403A0020403A002002
:102460002F00205400202F0020423A00202F00543B
:102470003A00206D6963726F6E730045786365730F
:102480007369766520626564206C6576656C696E3B
:102490006720636F7272656374696F6E3A200042E1
:1024A0006564206C6576656C696E67206661696C31
:1024B00065642E2053656E736F722074726967674E
:1024C0006572656420746F6F20686967682E0042CA
:1024D0006564206C6576656C696E67206661696C01
:1024E00065642E2053656E736F7220646973636F29
:1024F0006E6E6563746564206F72206361626C65E3
:102500002062726F6B656E2E0020453A00205A3AA9
:102510000020593A0020453A00205A3A0020593A02
:1025200000583A0067636F64655F4D373031206251
:102530006567696E0A00416476616E6365204B3D94
:10254000004B206F7574206F6620616C6C6F77652F
:10255000642072616E67652100200A200A20004D08
:102560003232302053256900255346696C616D6510
:102570006E742073657474696E67733A204469736E
:1025800061626C65640A00255346696C616D656E15
:10259000742073657474696E67733A0A255320203A
:1025A000204D3230302044252E32660A0025535209
:1025B0006574726163743A20533D4C656E6774684C
:1025C00020286D6D2920463A537065656420286D7A
:1025D0006D2F6D29205A3A205A4C69667420286D57
:1025E0006D290A25532020204D3230372053252EC7
:1025F00032662046252E3266205A252E32660A255E
:10260000535265636F7665723A20533D4578747214
:1026100061206C656E67746820286D6D2920463ACC
:10262000537065656420286D6D2F6D290A25532030
:1026300020204D3230382053252E32662046252E5C
:1026400032660A25534175746F2D52657472616349
:10265000743A20533D3020746F2064697361626C5A
:10266000652C203120746F20696E746572707265FC
:102670007420657874727564652D6F6E6C79206D49
:102680006F76657320617320726574726163747311
:10269000206F72207265636F7665726965730A25B3
:1026A000532020204D323039205325640A00255311
:1026B0005049442068656174626564207365747470
:1026C000696E67733A0A25532020204D3330342039
:1026D00050252E32662049252E32662044252E3282
:1026E000660A0025535049442073657474696E6707
:1026F000733A0A25532020204D3330312050252EA7
:1027000032662049252E32662044252E32660A0084
:10271000255353746570732070657220756E6974EB
:102720003A0A255320204D39322058252E32662072
:1027300059252E3266205A252E32662045252E3206
:10274000660A25535553746570207265736F6C75F6
:1027500074696F6E3A200A2553204D333530205866
:10276000256420592564205A2564204525640A25BE
:10277000534D6178696D756D20666565647261742D
:102780006573202D206E6F726D616C20286D6D2F2A
:1027900073293A0A255320204D3230332058252EF4
:1027A00032662059252E3266205A252E3266204563
:1027B000252E32660A25534D6178696D756D206648
:1027C0006565647261746573202D20737465616C36
:1027D000746820286D6D2F73293A0A255320204DE7
:1027E0003230332058252E32662059252E3266206D
:1027F0005A252E32662045252E32660A25534D6114
:1028000078696D756D20616363656C65726174696B
:102810006F6E202D206E6F726D616C20286D6D2F94
:102820007332293A0A255320204D32303120582561
:102830006C752059256C75205A256C752045256CC2
:10284000750A25534D6178696D756D206163636507
:102850006C65726174696F6E202D20737465616C94
:10286000746820286D6D2F7332293A0A2553202071
:102870004D3230312058256C752059256C75205A01
:10288000256C752045256C750A2553416363656C7D
:1028900065726174696F6E3A20503D7072696E7432
:1028A0002C20523D726574726163742C20543D7407
:1028B000726176656C0A255320204D3230342050E9
:1028C000252E32662052252E32662054252E326661
:1028D0000A2553416476616E63656420766172698E
:1028E00061626C65733A20533D4D696E2066656583
:1028F000647261746520286D6D2F73292C20543DFE
:102900004D696E2074726176656C206665656472CF
:1029100061746520286D6D2F73292C20423D6D69EF
:102920006E696D756D207365676D656E7420746971
:102930006D6520286D73292C20583D6D6178696D77
:10294000756D205859206A65726B20286D6D2F7344
:10295000292C20205A3D6D6178696D756D205A20B3
:102960006A65726B20286D6D2F73292C2020453DE0
:102970006D6178696D756D2045206A65726B2028E0
:102980006D6D2F73290A255320204D323035205389
:10299000252E32662054252E32662042252E3266A0
:1029A0002058252E32662059252E3266205A252E93
:1029B00032662045252E32660A2553486F6D652004
:1029C0006F666673657420286D6D293A0A25532059
:1029D000204D3230362058252E32662059252E3291
:1029E00066205A252E32660A004625642025640A90
:1029F000004D4D55203C3D20274625642025642769
:102A00000A004361703A25533A25630A0045585439
:102A1000454E4445445F4D3230004155544F524578
:102A2000504F52545F504F534954494F4E004155F7
:102A3000544F5245504F52545F46414E53004155FA
:102A4000544F5245504F52545F54454D5000005A18
:102A500030005A3100593000593100583000583197
:102A600000456E642073746F707320646961670041
:102A700044656C6574696F6E206661696C65642C71
:102A80002046696C653A200046696C652064656C77
:102A9000657465643A004E6F742053442070726907
:102AA0006E74696E67005072696E7420736176652A
:102AB00064005344207072696E7420706175736590
:102AC00064004F4B004241440052414D426F20464A
:102AD000414E200043524153485F43414E43454CD1
:102AE0000043524153485F5245434F5645520043BD
:102AF000524153485F5245434F56455200222832B7
:102B000029004475706C696361746520542D636F8E
:102B100064652069676E6F7265642E00496E766128
:102B20006C6964205420636F64652E002C204D393D
:102B3000303720452069676E6F726564006E6F20C4
:102B400076616C696420636F6D6D616E64002C202A
:102B5000002C20002C20006E2F61002C20002C2047
:102B6000002C20006E2F6100503A005761697420DC
:102B7000666F722050494E444120746172676574DB
:102B80002074656D70657261747572653A004155A7
:102B9000544F004C414E472053454C20464F524322
:102BA000454400256925250A00256925250A0022B6
:102BB0002831290030303030303030302D30303056
:102BC000302D303030302D303030302D303030300E
:102BD00030303030303030300020555549443A00E4
:102BE00031002045585452554445525F434F554E8D
:102BF000543A005072757361206933204D4B335342
:102C000000204D414348494E455F545950453A00D4
:102C1000312E3000206261736564206F6E204D613B
:102C2000726C696E204649524D574152455F55526C
:102C30004C3A68747470733A2F2F676974687562C0
:102C40002E636F6D2F707275736133642F507275C0
:102C500073612D4669726D776172652050524F54D1
:102C60004F434F4C5F56455253494F4E3A004649E9
:102C7000524D574152455F4E414D453A5072757322
:102C8000612D4669726D7761726520004D31313377
:102C900020530020423A0020453A00543A006F6B1E
:102CA00020006E2F61003F546F7368696261204697
:102CB0006C61736841697220476574495020666190
:102CC000696C65640A002569206D696E2C20256990
:102CD0002073656300496E76616C6964204D2063E2
:102CE0006F64653A2025730A004D6573682062653C
:102CF00064206C6576656C696E67206E6F74206108
:102D000063746976652E002020000A4D6561737535
:102D100072656420706F696E74733A000A5A20738A
:102D20006561726368206865696768743A20004E5F
:102D3000756D20582C593A200050494E444120705E
:102D4000726F62652063616C6962726174696F6E33
:102D500020737461727400473238205730004E6F10
:102D60002050494E444120746865726D6973746FD8
:102D70007200736574006E6F7A7A6C65004D424C18
:102D80000046520042656174004C7A004C616E67E7
:102D9000005265760046697200534E20696E766176
:102DA0006C696400534E004D32380052455345540F
:102DB000004D4D55524553004D32340075766C6FC1
:102DC000007468780046414E0046414E50494E54CA
:102DD00053540050524E0050696E67005052555384
:102DE00041005345545F43484F505F005345545F83
:102DF000535445505F005345545F574156455F005B
:102E0000544D435F0043524153485F43414E434555
:102E10004C0043524153485F5245434F5645520080
:102E200043524153485F444554454354454400434D
:102E3000524153485F004D3120004D30004D31313B
:102E40003700256C75206279746573207772697418
:102E500074656E20746F2025532061742061646452
:102E6000726573732030782530346C780A004425FD
:102E700064202D20526561642F5772697465202586
:102E8000530A0020436F756E7420583A2000453075
:102E90003A25642052504D2050524E313A2564203C
:102EA00052504D204530403A25752050524E314009
:102EB0003A25640A0064756D7020636C6561726503
:102EC000640A006E6F2064756D7020617661696CB4
:102ED00061626C650A00443231202D2072656164A4
:102EE0002063726173682064756D700A006E6F20D4
:102EF00064756D7020617661696C61626C650A0051
:102F000064756D7020636F6D706C657465642069A5
:102F10006E20256C756D730A0058464C415348006D
:102F2000454550524F4D005352414D00442D3120E4
:102F30002D20456E646C657373206C6F6F700A0092
:102F40005344207072696E74696E6720627974658B
:102F500020004163746976652045787472756465F4
:102F6000723A2000496E76616C69642065787472EB
:102F700075646572005A204F666673657400556EFD
:102F80006B6E6F776E20636F6D6D616E643A202299
:102F9000004D32303020496E76616C69642065786E
:102FA00074727564657220007A5F6D61783A2000F2
:102FB0007A5F6D696E3A2000795F6D61783A200022
:102FC000795F6D696E3A2000785F6D61783A200014
:102FD000545249474745524544006F70656E00782A
:102FE0005F6D696E3A20005265706F7274696E672A
:102FF00020656E6473746F702073746174757300F0
:1030000053494C454E54004E4F524D414C002553B0
:10301000204D4F44453A2050657263656E742064BC
:103020006F6E653A20256868643B207072696E7423
:103030002074696D652072656D61696E696E6720C7
:10304000696E206D696E733A2025643B2043686188
:103050006E676520696E206D696E733A2025640A7B
:1030600000456E642066696C65206C69737400426B
:103070006567696E2066696C65206C6973740055BC
:103080006E6B6E6F776E20256320636F64653A20E8
:1030900025730A000A50494E44412074656D7065DD
:1030A0007261747572653A20252E3166205A20733C
:1030B0006869667420286D6D293A20252E336600D4
:1030C0000A537465703A2025642F360A000A537437
:1030D00065703A2025642F362028736B69707065FF
:1030E00064290A50494E44412074656D70657261CF
:1030F000747572653A202564205A20736869667475
:1031000020286D6D293A300A000A5A45524F3A205C
:10311000252E33660A0073746172742074656D70B5
:10312000657261747572653A20252E31660A002534
:10313000642020252E326600255320583A20252E63
:10314000356620593A20252E3566205A3A20252EFC
:1031500035660A00536C6565702E2E2E0045303A98
:1031600025642052504D0A50524E303A2564205268
:10317000504D0A00256400526573656E6400255346
:103180003A20256C640A25530A00536F6D65207040
:10319000726F626C656D20656E636F756E746572BB
:1031A00065642C205A2D6C6576656C696E672065A8
:1031B0006E666F72636564202E2E2E00472D636F3E
:1031C000646520736C6963656420666F722061209A
:1031D000646966666572656E74206C6576656C2ED2
:1031E00020436F6E74696E75653F00472D636F6491
:1031F0006520736C6963656420666F72206120646A
:103200006966666572656E74206C6576656C2E20E5
:10321000506C656173652072652D736C6963652000
:10322000746865206D6F64656C20616761696E2EDE
:10323000205072696E742063616E63656C6C6564A6
:103240002E00472D636F646520736C69636564208D
:10325000666F722061206E65776572206669726D97
:10326000776172652E20506C65617365207570649E
:1032700061746520746865206669726D7761726536
:103280002E205072696E742063616E63656C6C658C
:10329000642E00472D636F646520736C69636564F9
:1032A00020666F722061206E657765722066697294
:1032B0006D776172652E20436F6E74696E75653F20
:1032C00000472D636F646520736C696365642066D5
:1032D0006F72206120646966666572656E74207025
:1032E00072696E74657220747970652E20436F6EFA
:1032F00074696E75653F00472D636F646520736C5C
:103300006963656420666F72206120646966666522
:1033100072656E74207072696E7465722074797053
:10332000652E20506C656173652072652D736C6924
:10333000636520746865206D6F64656C20616761EA
:10334000696E2E205072696E742063616E63656CC5
:103350006C65642E00576173206D617465726961DC
:103360006C2072656D6F7665642066726F6D20707B
:103370006C6174653F00576173206D61746572699B
:10338000616C2065787472756465643F003130202B
:103390006D696E75746520436F756E74646F776EBA
:1033A00020746F206578697420726F6F6D2062657C
:1033B00067696E3F00576173206D61746572696162
:1033C0006C2072656D6F7665642066726F6D20701B
:1033D0006C6174653F0057617320696E657274207B
:1033E0006D6174657269616C20657874727564656D
:1033F000643F004973206D6174657269616C20736C
:1034000074696C6C20657874727564696E673F00CE
:10341000507265737320746865206B6E6F622074E0
:103420006F2070726568656174206E6F7A7A6C6562
:1034300020616E6420636F6E74696E75652E005036
:103440006C656173652070726573732074686520A4
:103450006B6E6F6220746F20756E6C6F6164206696
:10346000696C616D656E740052656D6F7665206F75
:103470006C642066696C616D656E7420616E642099
:10348000707265737320746865206B6E6F62207450
:103490006F207374617274206C6F6164696E672051
:1034A0006E65772066696C616D656E742E00616E65
:1034B0006420707265737320746865206B6E6F6230
:1034C00000496E736572742066696C616D656E7417
:1034D00000436F6C6F72206E6F7420636F72726541
:1034E00063740046696C616D656E74206E6F742044
:1034F0006C6F61646564004368616E676564206336
:103500006F72726563746C793F004C6F6164696EB1
:103510006720636F6C6F72004368616E676520732C
:103520007563636573732100506C65617365206F0B
:1035300070656E2069646C657220616E64207265CE
:103540006D6F76652066696C616D656E74206D6166
:103550006E75616C6C792E005761732066696C61C1
:103560006D656E7420756E6C6F6164207375636336
:1035700065737366756C3F00506C6561736520758B
:103580007067726164652E004E6577206669726DA2
:10359000776172652076657273696F6E20617661FE
:1035A000696C61626C653A0057616974696E672085
:1035B000666F722050494E44412070726F626520E0
:1035C000636F6F6C696E6700437261736820646536
:1035D0007465637465642E20526573756D65207023
:1035E00072696E743F00437261736820646574652C
:1035F000637465642E004578747275646572004367
:10360000686F6F73652065787472756465723A00CF
:1036100043686F6F73652066696C616D656E743A9F
:10362000004E6F206D6F76652E00537461626C657D
:1036300020616D6269656E742074656D706572617C
:10364000747572652032312D323643206973206ED5
:1036500065656465642061207269676964207374BC
:10366000616E642069732072657175697265642E7C
:1036700000506C656173652072756E2058595A2030
:1036800063616C6962726174696F6E2066697273DE
:10369000742E005761697420666F722075736572AD
:1036A0002E2E2E0047312058352E302045342E3016
:1036B0002046313030302E30004731205A302E3203
:1036C000302046313030302E3000473120583535EB
:1036D0002E30204532352046313430302E300047F0
:1036E0003120592D322E302046313030302E3000EE
:1036F000473120583234302E30204532352E30209C
:103700002046323230302E30004739322045302EBC
:1037100030004731205A302E332046313030302EA1
:1037200030004731205835352E302045382E302096
:1037300046323030302E300047312058352E302080
:103740004533322E302046313830302E300047316C
:10375000205835352E30204533322E30204631303A
:1037600037332E30004731204634303030004D3270
:103770003034205331303030004731205A35204624
:10378000373230302E30303000473120452D312E49
:1037900035303030302046323130302E303030301D
:1037A00030004D3833004739300047323100473957
:1037B000322045302E3000473120583530205935E1
:1037C000352045332E3632373733004731205832D3
:1037D0003030205935352045302E343933383600D5
:1037E00047312058323030205937352045332E3676
:1037F000323737330047312058353020593735209C
:1038000045302E3439333836004731205835302092
:103810005939352045332E3632373733004731207A
:1038200058323030205939352045302E343933382C
:10383000360047312058323030205931313520455B
:10384000332E363237373300473120583530205940
:103850003131352045302E34393338360047312068
:1038600058353020593133352045332E36323737ED
:10387000330047312058323030205931333520451C
:10388000302E363631373400473120583230302030
:10389000593135352045322E3632373733004731EE
:1038A00020583130302059313535204532004731EC
:1038B0002058373520593135352045322E350047CF
:1038C00031204631303830004731205A302E3135E2
:1038D000302046373230302E3030300047312058DB
:1038E00035302059313535004739322045302E30BA
:1038F00000473238004D313039004D313930004DFC
:1039000031303700773235783230636C5F63666D03
:103910000A00773235783230636C5F656E74657299
:103920000A0073746172740A0024F4D43050C38E98
:1039300020C2A24017828B7011127A910D816CD92E
:103940000AA861E108C7586607615143061E4B5D2E
:1039500005C145A7041A411104093D980371393185
:10396000034036DB0265339102D4305402802E1DB1
:1039700002632CEE01752AC501B028A00110278131
:10398000018F2564012B244B01E0223401AC211F5F
:10399000018D200D01801FFC00841EED00971DDFAE
:1039A00000B81CD200E61BC600201BBC00641AB283
:1039B00000B219A8000A19A0006A189900D117913D
:1039C0000040178B00B516840031167E00B31579C0
:1039D000003A157300C7146F0058146A00EE13669E
:1039E000008813630025135E00C7125B006C12573A
:1039F0000015125400C111510070114F0021114BDC
:103A000000D61049008D10470046104400021042B5
:103A100000C00F4000800F3E00420F3C00060F3BED
:103A200000CB0E3800930E37005C0E3500270E34A5
:103A300000F30D3200C10D3100900D3000600D2EED
:103A400000320D2D00050D2C00D90C2B00AE0C29D9
:103A500000850C29005C0C2700350C27000E0C2675
:103A600000E80B2400C40B2400A00B23007D0B23D3
:103A7000005A0B2100390B2100180B2000F80A1FF7
:103A800000D90A1E00BB0A1E009D0A1D00800A1DE7
:103A900000630A1C00470A1B002C0A1B00110A1AAB
:103AA00000F7091A00DD091900C4091900AB09194A
:103AB00000920917007B091800630917004C0916CA
:103AC0000036091600200916000A091500F5081528
:103AD00000E0081400CC081400B8081400A408146E
:103AE00000900813007D0812006B0813005808129C
:103AF00000460812003408110023081100120811B2
:103B00000001081100F0071000E0071000D00710B6
:103B100000C0071000B0070F00A107100091070EAA
:103B20000083070F0074070F0065070E0057070E8C
:103B30000049070E003B070D002E070E0020070D61
:103B40000013070D0006070D00F9060C00ED060D29
:103B500000E0060C00D4060C00C8060C00BC060CE5
:103B600000B0060C00A4060B0099060C008D060B95
:103B70000082060B0077060B006C060B0061060A3C
:103B80000057060B004C060A0042060A0038060AD7
:103B9000002E060A0024060A001A060A001006096A
:103BA0000007060A00FD050900F4050900EB0509F8
:103BB00000E2050900D9050900D0050900C705097B
:103BC00000BE050900B5050800AD050800A50509FA
:103BD000009C050800940508008C05080084050871
:103BE000007C050800740508006C050700650508E1
:103BF000005D050700560508004E0507004705074C
:103C0000004005080038050700310507002A0507B0
:103C100000230507001C050600160507000F050711
:103C2000000805060002050700FB040600F504076E
:103C300000EE040600E8040600E2040700DB0406C8
:103C400000D5040600CF040600C9040600C304061C
:103C500000BD040600B7040600B1040500AC04066C
:103C600000A6040600A00405009B040600950405B8
:103C700000900406008A04050085040500800406FF
:103C8000007A04050075040500700405006B040546
:103C90000066040500610405005C04050057040586
:103CA00000520405004D04050048040500430405C6
:103CB000003E0404003A0405003504050030040405
:103CC000002C04050027040400230405001E04043E
:103CD000001A04040016040500110404000D040475
:103CE00000090405000404040000040400FC0304AB
:103CF00000F8030400F4030400F0030400EC0304E0
:103D000000E8030400E4030400E0030400DC03040F
:103D100000D8030400D4030400D0030400CC03043F
:103D200000C8030300C503030024F404D9201BC406
:103D30000C5C0E9804C4095F0265077101F405F973
:103D400000FB04B30048048700C103690058035511
:103D50000003034500BE023A008402310053022AE8
:103D6000002902250004022000E4011C00C80119FA
:103D700000AF0117009801140084011300710110B5
:103D8000006101100051010E0043010D0036010BCE
:103D9000002B010B0020010B00150109000C01098B
:103DA0000003010800FB000800F3000800EB000717
:103DB00000E4000600DE000600D8000600D200067F
:103DC00000CC000500C7000500C2000500BD0004CE
:103DD00000B9000400B5000400B1000400AD000407
:103DE00000A9000400A5000300A20003009F000436
:103DF000009B00030098000300950002009300035D
:103E000000900003008D0002008B00030088000278
:103E1000008600020084000300810002007F00028F
:103E2000007D0002007B00020079000200770001A3
:103E300000760002007400020072000100710002AE
:103E4000006F0002006D0001006C0002006A0001BA
:103E500000690002006700010066000100650001C2
:103E600000640002006200010061000100600001C6
:103E7000005F0002005D0001005C0001005B0001CA
:103E8000005A0001005900010058000100570001CC
:103E900000560001005500010054000100530000CD
:103EA00000530001005200010051000100500001C8
:103EB000004F0001004E0000004E0001004D0001C7
:103EC000004C0001004B0000004B0001004A0001C3
:103ED00000490001004800000048000100470001BF
:103EE00000460000004600010045000000450001BA
:103EF00000440001004300000043000100420000B4
:103F000000420001004100000041000100400001AA
:103F1000003F0000003F0001003E0000003E0001A5
:103F2000003D0000003D0001003C0000003C00009E
:103F3000003C0001003B0000003B0001003A000093
:103F4000003A00010039000000390001003800008B
:103F50000038000000380001003700000037000181
:103F60000036000000360000003600010035000079
:103F7000003500000035000100340000003400006E
:103F80000034000100330000003300000033000162
:103F90000032000000320000003200010031000059
:103FA000003100000031000100300000003000004E
:103FB00000300001002F0000002F0000002F000043
:103FC000002F0001002E0000002E0000002E000136
:103FD000002D0000002D0000002D0000002D00012C
:103FE000002C0000002C0000002C0000002C000120
:103FF000002B0000002B0000002B0000002B000114
:10400000002A0000002A0000002A0000002A000107
:1040100000290000002900000029000000290000FC
:1040200000290001002800000028000000280000EE
:1040300000280000002800010027000000270000E1
:1040400000270000002700000027000100260000D4
:1040500000260000002600000026000000260001C7
:1040600000250000002500000025000000250000BC
:1040700000250000002500010024000000240000AD
:1040800000240000002400000024000100230000A0
:104090000023000000230000002300000023000094
:1040A0000023000000230001002200000022000085
:1040B0000022000000220000002200000022000177
:1040C000002100000021000000210000002100006C
:1040D000002100000021000000210001002000005C
:1040E0000020000000200000002000000020000050
:1040F000002000000020000000200001001F000040
:10410000001F0000001F0000001F0000001F000033
:10411000001F0000001F0001001E0000001E000024
:10412000001E0000001E000000504944204175742C
:104130006F74756E652066696E69736865642120A9
:1041400050757420746865206C617374204B702CFA
:10415000204B6920616E64204B6420636F6E737422
:10416000616E74732066726F6D2061626F76652078
:10417000696E746F20436F6E6669677572617469EA
:104180006F6E2E6800504944204175746F74756ECF
:1041900065206661696C6564212074696D656F7561
:1041A000740020403A00543A00423A0050494420FA
:1041B0004175746F74756E65206661696C65642104
:1041C0002054656D706572617475726520746F6FCF
:1041D000206869676800204B643A2000204B693AE8
:1041E0002000204B703A200020436C617373696398
:1041F0002050494420002054753A2000204B753A45
:104200002000206D61783A2000206D696E3A200010
:1042100020643A200020626961733A200045787476
:1042200072756465722066616E20737065656420C6
:104230006973206C6F776572207468616E20657891
:10424000706563746564005072696E742066616E97
:10425000207370656564206973206C6F77657220C8
:104260007468616E206578706563746564004D499B
:104270004E54454D5020414D42004D415854454DFE
:1042800050004D415854454D5020424544004D4149
:104290005854454D5020414D420070012C01900171
:1042A0002701B0012201C0011D01F0011801100217
:1042B000130130020E016002090190020401C002E4
:1042C000FF000003FA004003F5008003F000D00374
:1042D000EB002004E6007004E100E004DC0040058F
:1042E000D700C005D2004006CD00D006C800800728
:1042F000C3003008BE00F008B900C009B400B00A1D
:10430000AF00B00BAA00D00CA500000EA000500F0B
:104310009B00C01096005012910000148C00C01534
:104320008700B0178200B0197D00D01B7800001EF6
:10433000730040206E0090226900F0246400402742
:104340005F0090295A00E02B5500102E50002030BD
:104350004B0010324600E033410090353C001037EE
:10436000370070383200A0392D00B03A2800A03B49
:104370002300603C1E00103D1900903D1400103ECB
:104380000F00703E0A00C03E0500003F0000901381
:104390007D00B0157800F0177300601A6E00F01CF5
:1043A0006900A01F640050225F0020255A00E0270A
:1043B0005500902A5000202D4B00A02F4600F031D0
:1043C000410010343C00F0353700A037320020396E
:1043D0002D00603A2800703B2300603C1E00203D09
:1043E0001900C03D1400403E0F00A03E0A00F03E00
:1043F0000500403F0000703FFBFF903FF6FFB03FDD
:10440000F1FFC03FECFFD03FE7FFE03FE2FFF03FAE
:10441000DDFFF03FD8FF20484F54454E442054481C
:1044200045524D414C2052554E415741590020486C
:1044300045415442454420544845524D414C205238
:10444000554E4157415900544845524D414C205218
:10445000554E415741590042454420544845524D1C
:10446000414C2052554E4157415900205448455225
:104470004D414C2052554E41574159202820505211
:10448000454845415420484F54454E442900205446
:104490004845524D414C2052554E415741592028D4
:1044A00020505245484541542048454154424544D6
:1044B000290050524548454154204552524F520020
:1044C0004245442050524548454154204552524FA0
:1044D00052004572723A20002074726967676572F3
:1044E000656421004865617465727320737769742F
:1044F00063686564206F66662E20003A2000506C69
:10450000656173652072657374617274004D494E04
:1045100054454D50004D494E54454D502042454460
:1045200000452D6D6F746F722063757272656E74C5
:10453000207363616C696E6720656E61626C65648F
:1045400000746D63323133305F686F6D655F656E27
:1045500074657228617865735F6D61736B3D307847
:1045600025303278290A00746D63323133305F6848
:104570006F6D655F6578697420746D6332313330B7
:104580005F73675F686F6D696E675F617865735FA2
:104590006D61736B3D3078253032780A0072657337
:1045A000756C742076616C75653A2025640A00206C
:1045B000693D25326420636E743D25326420766146
:1045C0006C3D2532640A00636C7573746572733ACE
:1045D0000020693D25326420737465703D25326486
:1045E0000A00736F727465642073616D706C65731B
:1045F0003A00252D3773003A200025642F36002518
:104600002D32305300203A2000252D3230730054D3
:104610002564004731205A302E3420463130303066
:104620002E3000473120592D332E30204631303086
:10463000302E30004D383300473120583130302E85
:1046400030204531322E352046313030302E30008A
:104650004731205836302E302045392E3020463113
:104660003030302E30004E37383722371237093786
:10467000F036DF36CA36B936A436AE37AA37A63793
:10468000A237893779376E3765374731205835304B
:10469000205933352045252D2E336600DC38C838A7
:1046A000BF38AE389E38883872385D38483832386E
:1046B0001D380938F537E037CB37B737496E7661A3
:1046C0006C6964205049442063616C2E20726573CC
:1046D000756C74732E204E6F742073746F726564E2
:1046E00020746F20454550524F4D2E004D353030CF
:1046F000004731205A3135204631353030004739B6
:10470000310047312058353020593139302045307B
:1047100020463730303000473930004D3834004DB6
:10472000373032204300473120583130205931385A
:1047300030204634303030004731205A3130204666
:10474000313330302E303030004D31343020533062
:10475000004D31303420533000473120452D302E6C
:1047600030373530302046323130302E3030303036
:1047700030004D3130370025530A20252D31362E9B
:10478000313653252D33640A20252D31362E31360E
:1047900053252D33640025530A20252D31362E3123
:1047A0003653252D33640A20252D31362E313653CC
:1047B000252D33640A20252D31362E313653252DF3
:1047C00033640025530A20252D31362E31365325EA
:1047D0002D33640A20252D31362E313653252D33C5
:1047E000640A20252D372E37535820252D33642079
:1047F000205920252D3364002025732533640120A2
:104800000A000A204952203A20202020202020257A
:10481000332E31665600205057523A202020202057
:104820002025342E3166560A204245443A20202065
:1048300020202025342E3166560025530A2058208A
:1048400025640A20592025640025752E25752E25FE
:10485000752E25750025730020005072696E7465F1
:104860007220495020416464723A00257300200090
:10487000466C6173684169722049502041646472DA
:104880003A004D4D5532202020202020204E2F412F
:104890000025642E25642E25642D256400204657AE
:1048A0003A0046696C2E2073656E736F7220762E07
:1048B0003A004665622020372032303232004533DC
:1048C00044763666756C6C0045494E53795F3130DD
:1048D0006100315F37356D6D5F4D4B33002D2D2DF0
:1048E0002D2D2D2D2D2D2D2D2D00207265706F203D
:1048F000556E6B6E6F776E0020332E31302E302D5B
:1049000034343831004669726D776172653A004D12
:10491000373032004D373031004D373032004D37AF
:10492000303100464C4558202D20203234302F3570
:10493000300050502020202D20203235342F3130AF
:10494000300048495053202D20203232302F313052
:10495000300041425320202D20203235352F313078
:10496000300050564220202D20203231352F37354F
:104970000050432020202D20203237352F31313078
:104980000041534120202D20203236302F31303548
:104990000050455420202D20203233302F38350050
:1049A000504C4120202D20203231352F3630006EE2
:1049B0006F7A7A6C65202D20203235302F300066DA
:1049C00061726D2020202D20203235302F383000AC
:1049D00045787472756465723A00252D31322E3136
:1049E0003253252B382E31660052504D28302E314F
:1049F00058293A0052504D3A006D6D005900580048
:104A0000583A00593A005A3A002563252D31332E81
:104A1000313353252B352E3366004D313137204647
:104A200069727374206C617965722063616C2E0009
:104A3000526573756D696E67207072696E7400508F
:104A4000494E44412048656174696E670043616C5A
:104A50006962726174696F6E20646F6E6500436194
:104A60006C6962726174696E67205A0042656420E5
:104A7000646F6E65004265642048656174696E67A5
:104A80000048656174696E6720646F6E652E00482A
:104A9000656174696E67005049442063616C2E2023
:104AA00066696E6973686564005049442063616C8F
:104AB0002E005072696E74207061757365640050C9
:104AC00072696E742046414E004E6F7A7A6C652092
:104AD00046414E004D4D5520706F776572206661DE
:104AE000696C73004D4D55206C6F6164206661697F
:104AF0006C73004D4D55206661696C7300546F7482
:104B0000616C206661696C757265730043726173D4
:104B1000680046696C2E2072756E6F757473005054
:104B20006F776572206661696C75726573004C61A0
:104B30007374207072696E74206661696C75726539
:104B40007300546F74616C004C61737420707269EF
:104B50006E7400416D6269656E740044756D7020FD
:104B60006D656D6F727900566F6C74616765730067
:104B700054656D7065726174757265730042656C21
:104B800074207374617475730053656E736F722053
:104B9000696E666F00457874727564657220696E1F
:104BA000666F0058595A2063616C2E2064657461E9
:104BB000696C7300756E6B6E6F776E004D4D55327C
:104BC00020636F6E6E656374656400446174653A5A
:104BD00000746F20756E6C6F61642066696C616D26
:104BE000656E7400746F206C6F61642066696C611F
:104BF0006D656E7400507265737320746865206B08
:104C00006E6F620050726568656174696E672074CA
:104C10006F206375740050726568656174696E67B2
:104C200020746F20656A6563740050726568656101
:104C300074696E6720746F20756E6C6F61640050CC
:104C4000726568656174696E6720746F206C6F614E
:104C50006400436F6F6C646F776E005072656865B7
:104C6000617420746865206E6F7A7A6C65210045E6
:104C700052524F523A0046696C616D656E74206500
:104C80007874727564696E6720262077697468206D
:104C9000636F727265637420636F6C6F723F004163
:104CA00075746F6C6F6164696E672066696C616DA5
:104CB000656E74206973206163746976652C206A5F
:104CC00075737420707265737320746865206B6EE1
:104CD0006F6220616E6420696E736572742066690C
:104CE0006C616D656E742E2E2E005072696E74208C
:104CF00074696D650046696C616D656E74207573CD
:104D0000656400546F74616C207072696E742074F5
:104D1000696D6500546F74616C2066696C616D65C6
:104D20006E74005269676874004C6566740059209F
:104D300064697374616E63652066726F6D206D695E
:104D40006E0053657665726520736B657700536CF2
:104D50006967687420736B6577004D656173757260
:104D6000656420736B6577005B303B305D20706F4E
:104D7000696E74206F66667365740041646A75734A
:104D800074696E67205A3A005265617220736964D3
:104D900065205B756D5D0046726F6E74207369648B
:104DA000655B756D5D005269676874207369646541
:104DB0005B756D5D004C6566742073696465205B8E
:104DC000756D5D005365742074656D7065726174F6
:104DD0007572653A0020746F6F206C6F6E67206586
:104DE0007874727573696F6E2070726576656E7413
:104DF00065640020636F6C642065787472757369F4
:104E00006F6E2070726576656E74656400544D43F4
:104E100020445249564552204F56455254454D5014
:104E20000025632533642F25642563005A25362E1B
:104E300032662563005A2020202D2D2D2000256369
:104E40002533642525002D2D2D0025336868640049
:104E5000253353253373252500205344002020207B
:104E600000555342002025753E257500203F3E2504
:104E70007500204625750020463F002046524D20F3
:104E80000025632D2D3A2D2D202000256325337517
:104E9000682025632563002563253032753A253067
:104EA000327525632563002F2F20616374696F6E4F
:104EB0003A70617573650025732025346420525063
:104EC0004D0A2573202534642052504D0A00686F26
:104ED00077746F2E707275736133642E636F6D001B
:104EE000666F72756D2E707275736133642E636FA9
:104EF0006D00707275736133642E636F6D0025539E
:104F00003A0A2531382E32666D200A25533A0A2591
:104F100031306C6468202530326868646D2025303B
:104F200032686864730025533A0A2531382E326698
:104F30006D200A25533A0A2531306C6464202530EF
:104F40003268686468202530326868646D002536F0
:104F50002E32666D6D0025530A25530A25533A0AF1
:104F600025533A0025332E32660100252D31342E8B
:104F70003134533A0A25530A252D31342E31345316
:104F80003A25332E3266010A252D31342E31345321
:104F90003A25332E326601004D3630300066736597
:104FA0006E736F725F757064617465202D204D366D
:104FB00030300049522073656E736F72206E6F74CB
:104FC00020726573706F6E64696E6720282564298E
:104FD000210A0020573A0020453A00543A005A204E
:104FE0006C6976652061646A757374206F757420CE
:104FF0006F662072616E67652E2053657474696EEA
:105000006720746F20302E20436C69636B20746FAF
:1050100020636F6E74696E75652E005A206C697618
:10502000652061646A757374206F7574206F6620E3
:1050300072616E67652E2053657474696E672074A3
:105040006F20300020423A0020453A00543A00498F
:105050004E5434007265636F7665725F6D6163688C
:10506000696E655F73746174655F61667465725FB4
:10507000706F7765725F70616E69632C20696E690D
:105080007469616C200050525553412075766C6FE5
:10509000004734205330004D32362053256C7500C4
:1050A0004D3130362053004D3232302053256400CC
:1050B000473120462564004D3832004739322045BB
:1050C000004731204525302E3366204632373030B8
:1050D000004D32303420502566205225662054255C
:1050E00066004731205A2566005052555341204DE5
:1050F000424C2056310047312058256620592566FC
:1051000020463330303000506F736974696F6E2001
:10511000726561642066726F6D20656570726F6D77
:105120003A004D3233202573002E67636F002C2028
:10513000666565646D756C7469706C793A00466576
:105140006564726174653A0047312045252D302E23
:10515000336620463237303000473120453520460F
:10516000313230004D3833004D3130392053256411
:10517000004D31393020532564004D3130342053F7
:1051800025640047323820582059004731205A25DD
:105190002E33662046383030004731205A252D30D6
:1051A0002E33662046252D302E33660047312045AC
:1051B000252D302E3366204632373030004D3833BF
:1051C0000000002110422063308440A550C660E7F3
:1051D00070088129914AA16BB18CC1ADD1CEE1EFAC
:1051E000F13112100273325222B5529442F772D644
:1051F00062399318837BB35AA3BDD39CC3FFF3DEFC
:10520000E36224433420040114E664C774A4448593
:10521000546AA54BB528850995EEE5CFF5ACC58D4B
:10522000D55336722611163006D776F6669556B4E3
:10523000465BB77AA719973887DFF7FEE79DD7BC9B
:10524000C7C448E5588668A7784008611802282333
:1052500038CCC9EDD98EE9AFF9488969990AA92BEB
:10526000B9F55AD44AB77A966A711A500A333A1283
:105270002AFDDBDCCBBFFB9EEB799B588B3BBB1A3B
:10528000ABA66C877CE44CC55C222C033C600C41D3
:105290001CAEED8FFDECCDCDDD2AAD0BBD688D498B
:1052A0009D977EB66ED55EF44E133E322E511E7023
:1052B0000E9FFFBEEFDDDFFCCF1BBF3AAF599F78DB
:1052C0008F8891A981CAB1EBA10CD12DC14EF16F8C
:1052D000E18010A100C230E32004502540467067F1
:1052E00060B9839893FBA3DAB33DC31CD37FE35E1D
:1052F000F3B1029012F322D2323542145277625641
:1053000072EAB5CBA5A89589856EF54FE52CD50D2C
:10531000C5E234C324A01481046674476424540590
:1053200044DBA7FAB79987B8975FE77EF71DC73CBC
:10533000D7D326F2369106B01657667676154634E0
:10534000564CD96DC90EF92FE9C899E9898AB9ABCC
:10535000A94458654806782768C018E1088238A330
:10536000287DCB5CDB3FEB1EFBF98BD89BBBAB9A5C
:10537000BB754A545A376A167AF10AD01AB32A9280
:105380003A2EFD0FED6CDD4DCDAABD8BADE89DC96C
:105390008D267C076C645C454CA23C832CE01CC1D0
:1053A0000C1FEF3EFF5DCF7CDF9BAFBABFD98FF8FC
:1053B0009F176E367E554E745E932EB23ED10EF020
:1053C0001E7C3C3E3F2F2A225C0022206661696CD5
:1053D00065643A204275666665722066756C6C215C
:1053E000002200256920686F757273202569206D81
:1053F000696E757465730054494D454F55543A00B4
:105400004D3131300046756C6C2052582042756623
:1054100066657200437573746F6D00536174696ED5
:10542000200054657874757200536D6F6F74680056
:1054300047312059252D2E32662045252D2E3366E5
:10544000004731205825642059252D2E32662045ED
:10545000252D2E3366006673656E736F725F636809
:1054600065636B706F696E745F7072696E740066ED
:1054700073656E736F722076302E3420696E2066ED
:1054800061756C742072616E676520342E362D351F
:1054900056202D20756E636F6E6E656374656400B3
:1054A0006673656E736F7220696E20666F726269D3
:1054B0006464656E2072616E676520312E352D3310
:1054C00056202D20636865636B2073656E736F7261
:1054D00000312E3000312E3500554E4B4E4F574E79
:1054E000004C413130433A204C696E656172204175
:1054F0006476616E6365206D6F64653A20004C418F
:105500003130433A2041646A757374656420452DD7
:105510004A65726B3A2000000E1315110E00000050
:1055200004120912040000001C1F11111F000000CA
:1055300006191803130C00040E1F041C00000004BD
:105540000A0A0A0A11110E001F1511151F0000008A
:105550000103161C0800000000110A04110A040CC3
:1055600012120C000000002563252D31382E313831
:10557000532563005B25735D2563005B25535D2523
:1055800063002563252D31382E31385300252E3107
:10559000305320002563252D31382E313873256393
:1055A000002563252D2E31365320002563252E310D
:1055B00035533A257325336400252D32302E323091
:1055C000530A00457872656D65207370616E206FB7
:1055D0006620746865205A2076616C7565732100B9
:1055E00025642F39006F6B0A0073746172740A00AE
:1055F0004D4D5532206669726D7761726520766512
:105600007273696F6E20696E76616C69642E2052C8
:10561000657175697265642076657273696F6E3A3B
:10562000206275696C64206E756D626572202564F8
:10563000206F72206869676865722E004D4D552095
:105640003D3E20276F6B270A004D4D55203D3E20E3
:10565000276F6B270A002564004D4D55203D3E20E5
:10566000276F6B272C20726573756D6520707269CA
:105670006E740A004D4D5520726574727920617404
:1056800074656D7074206E722E2025640A004D4D75
:1056900055203D3E20276F6B270A00410A004D4DE3
:1056A00055203C3D202741270A004D36303020410F
:1056B00055544F004D363030002568687500410A5A
:1056C000004D4D55203C3D202741270A0050300A0F
:1056D000004D25640A004D4D55203C3D20274D25A9
:1056E00064270A0057300A004D4D55203C3D2027C5
:1056F0005730270A0053330A004D4D55203C3D20BA
:10570000275333270A0052300A004D4D55203C3DA7
:1057100020275230270A004B25640A004D4D5520A2
:105720003C3D20274B2564270A004525640A004D8F
:105730004D55203C3D2027452564270A0055300A59
:10574000004D4D55203C3D20275530270A00433061
:105750000A004D4D55203C3D20274330270A004C80
:1057600025640A004D4D55203C3D20274C256427DB
:105770000A005425640A004D4D55203C3D20275415
:105780002564270A004D4D55202D20454E41424CA1
:10579000454400256868750050300A004D310A0004
:1057A0004D4D55203C3D20274D31270050300A00FB
:1057B0004D4D552076657273696F6E2076616C6908
:1057C00064004D4D55203D3E202725646F6B270A10
:1057D0000025750053320A004D4D55203C3D2027D1
:1057E000533227004D4D55203D3E202725646F6BD9
:1057F000270A002575004D4D55206E6F7420726587
:1058000073706F6E64696E67202D20444953414266
:105810004C45440053310A004D4D55203C3D202756
:10582000533127004D4D55203D3E20277374617242
:105830007427006E6F206D6F766500542D636F6462
:105840006500756E6C6F6164006C6F6164006D6DF6
:10585000755F6765745F726573706F6E7365202D19
:1058600020626567696E206D6F76653A20006D6D08
:10587000755F6765745F726573706F6E73652829F5
:105880002072657475726E696E673A2025640A002D
:10589000556E6C6F6164696E672066696E697368C6
:1058A0006564203200556E6C6F6164203200556E65
:1058B0006C6F6164696E672066696E6973686564A0
:1058C000203100556E6C6F61642031004D4D5520C4
:1058D00073746172747320726573706F6E64696E35
:1058E00067004D4D55206E6F7420726573706F6E3A
:1058F00064696E670046696C616D656E74206F75D2
:1059000074206F662072616E6765202564200A002E
:105910000000803F555585410000803F0000C84190
:1059200000000040555505420000C03F00004842BD
:105930000000204055558542000070C1ABAAA64228
:10594000000060C10000A0410000C0C00000204174
:1059500000002041ABAA3A41000020C15555D54076
:10596000000048C2555505424D37303120453400BE
:105970004D373031204533004D373031204532002E
:105980004D373031204531004D3730312045300022
:1059900046696C616D656E74206E72206F7574203F
:1059A0006F662072616E67652100206661696C65B3
:1059B000642E00207375636365656465642E004D15
:1059C0004D552063616E5F6C6F61643A00416464A1
:1059D0006974696F6E616C206C6F616420617474AE
:1059E000656D7074206E722E2025640A0048656112
:1059F00074696E672064697361626C6564206279A2
:105A0000207361666574792074696D65722E004635
:105A1000532076302E33206F72206F6C64657200D5
:105A200046532076302E34206F72206E6577657273
:105A3000005265636F766572696E67207072696E79
:105A40007400506C6561736520776169740053540C
:105A50004F505045442E00756E6B6E6F776E2073FD
:105A6000746174650020302E34206F72206E65776B
:105A700065720020302E33206F72206F6C64657267
:105A800000426564206C6576656C696E67206661AE
:105A9000696C65642E2053656E736F72206469644F
:105AA0006E277420747269676765722E2044656280
:105AB000726973206F6E206E6F7A7A6C653F205723
:105AC000616974696E6720666F72207265736574B0
:105AD0002E00506C6561736520757064617465207B
